{
  "_format": "hh-sol-artifact-1",
  "contractName": "PrivacyVotingDAOv2",
  "sourceName": "contracts/PrivacyVotingDAOv2.sol",
  "abi": [
    {
      "inputs": [
        {
          "internalType": "contract SemaphoreVerifier",
          "name": "_verifier",
          "type": "address"
        },
        {
          "internalType": "uint256",
          "name": "_root",
          "type": "uint256"
        },
        {
          "internalType": "contract IERC20Votes",
          "name": "_govToken",
          "type": "address"
        }
      ],
      "stateMutability": "nonpayable",
      "type": "constructor"
    },
    {
      "inputs": [
        {
          "internalType": "address",
          "name": "owner",
          "type": "address"
        }
      ],
      "name": "OwnableInvalidOwner",
      "type": "error"
    },
    {
      "inputs": [
        {
          "internalType": "address",
          "name": "account",
          "type": "address"
        }
      ],
      "name": "OwnableUnauthorizedAccount",
      "type": "error"
    },
    {
      "anonymous": false,
      "inputs": [
        {
          "indexed": false,
          "internalType": "uint256",
          "name": "newRoot",
          "type": "uint256"
        }
      ],
      "name": "MemberRootUpdated",
      "type": "event"
    },
    {
      "anonymous": false,
      "inputs": [
        {
          "indexed": true,
          "internalType": "address",
          "name": "previousOwner",
          "type": "address"
        },
        {
          "indexed": true,
          "internalType": "address",
          "name": "newOwner",
          "type": "address"
        }
      ],
      "name": "OwnershipTransferred",
      "type": "event"
    },
    {
      "anonymous": false,
      "inputs": [
        {
          "indexed": true,
          "internalType": "uint256",
          "name": "id",
          "type": "uint256"
        },
        {
          "indexed": false,
          "internalType": "uint8",
          "name": "winner",
          "type": "uint8"
        }
      ],
      "name": "ProposalClosed",
      "type": "event"
    },
    {
      "anonymous": false,
      "inputs": [
        {
          "indexed": true,
          "internalType": "uint256",
          "name": "id",
          "type": "uint256"
        },
        {
          "indexed": false,
          "internalType": "enum CountingMode",
          "name": "mode",
          "type": "uint8"
        },
        {
          "indexed": false,
          "internalType": "string",
          "name": "title",
          "type": "string"
        },
        {
          "indexed": false,
          "internalType": "uint64",
          "name": "closes",
          "type": "uint64"
        }
      ],
      "name": "ProposalCreated",
      "type": "event"
    },
    {
      "anonymous": false,
      "inputs": [
        {
          "indexed": true,
          "internalType": "uint256",
          "name": "id",
          "type": "uint256"
        },
        {
          "indexed": false,
          "internalType": "uint8",
          "name": "option",
          "type": "uint8"
        },
        {
          "indexed": false,
          "internalType": "uint256",
          "name": "nullifier",
          "type": "uint256"
        },
        {
          "indexed": false,
          "internalType": "uint256",
          "name": "weight",
          "type": "uint256"
        }
      ],
      "name": "VoteCast",
      "type": "event"
    },
    {
      "inputs": [
        {
          "internalType": "uint256",
          "name": "id",
          "type": "uint256"
        }
      ],
      "name": "closeProposal",
      "outputs": [],
      "stateMutability": "nonpayable",
      "type": "function"
    },
    {
      "inputs": [
        {
          "internalType": "string",
          "name": "title",
          "type": "string"
        },
        {
          "internalType": "string",
          "name": "description",
          "type": "string"
        },
        {
          "internalType": "enum CountingMode",
          "name": "mode",
          "type": "uint8"
        },
        {
          "internalType": "string[]",
          "name": "options",
          "type": "string[]"
        },
        {
          "internalType": "uint32",
          "name": "duration",
          "type": "uint32"
        }
      ],
      "name": "createProposal",
      "outputs": [
        {
          "internalType": "uint256",
          "name": "id",
          "type": "uint256"
        }
      ],
      "stateMutability": "nonpayable",
      "type": "function"
    },
    {
      "inputs": [
        {
          "internalType": "uint256",
          "name": "id",
          "type": "uint256"
        }
      ],
      "name": "getProposal",
      "outputs": [
        {
          "internalType": "string",
          "name": "title",
          "type": "string"
        },
        {
          "internalType": "enum CountingMode",
          "name": "mode",
          "type": "uint8"
        },
        {
          "internalType": "bool",
          "name": "open",
          "type": "bool"
        },
        {
          "internalType": "uint64",
          "name": "closes",
          "type": "uint64"
        },
        {
          "internalType": "string[]",
          "name": "options",
          "type": "string[]"
        }
      ],
      "stateMutability": "view",
      "type": "function"
    },
    {
      "inputs": [],
      "name": "govToken",
      "outputs": [
        {
          "internalType": "contract IERC20Votes",
          "name": "",
          "type": "address"
        }
      ],
      "stateMutability": "view",
      "type": "function"
    },
    {
      "inputs": [],
      "name": "memberMerkleRoot",
      "outputs": [
        {
          "internalType": "uint256",
          "name": "",
          "type": "uint256"
        }
      ],
      "stateMutability": "view",
      "type": "function"
    },
    {
      "inputs": [],
      "name": "owner",
      "outputs": [
        {
          "internalType": "address",
          "name": "",
          "type": "address"
        }
      ],
      "stateMutability": "view",
      "type": "function"
    },
    {
      "inputs": [],
      "name": "proposalCount",
      "outputs": [
        {
          "internalType": "uint256",
          "name": "",
          "type": "uint256"
        }
      ],
      "stateMutability": "view",
      "type": "function"
    },
    {
      "inputs": [],
      "name": "renounceOwnership",
      "outputs": [],
      "stateMutability": "nonpayable",
      "type": "function"
    },
    {
      "inputs": [
        {
          "internalType": "uint256",
          "name": "id",
          "type": "uint256"
        },
        {
          "internalType": "uint16",
          "name": "start",
          "type": "uint16"
        },
        {
          "internalType": "uint16",
          "name": "n",
          "type": "uint16"
        }
      ],
      "name": "tallies",
      "outputs": [
        {
          "internalType": "uint256[]",
          "name": "out",
          "type": "uint256[]"
        }
      ],
      "stateMutability": "view",
      "type": "function"
    },
    {
      "inputs": [
        {
          "internalType": "address",
          "name": "newOwner",
          "type": "address"
        }
      ],
      "name": "transferOwnership",
      "outputs": [],
      "stateMutability": "nonpayable",
      "type": "function"
    },
    {
      "inputs": [
        {
          "internalType": "uint256",
          "name": "newRoot",
          "type": "uint256"
        }
      ],
      "name": "updateMemberRoot",
      "outputs": [],
      "stateMutability": "nonpayable",
      "type": "function"
    },
    {
      "inputs": [],
      "name": "verifier",
      "outputs": [
        {
          "internalType": "contract SemaphoreVerifier",
          "name": "",
          "type": "address"
        }
      ],
      "stateMutability": "view",
      "type": "function"
    },
    {
      "inputs": [
        {
          "internalType": "uint256",
          "name": "id",
          "type": "uint256"
        },
        {
          "internalType": "uint8",
          "name": "option",
          "type": "uint8"
        },
        {
          "internalType": "uint256",
          "name": "signalHash",
          "type": "uint256"
        },
        {
          "internalType": "uint256",
          "name": "nullifierHash",
          "type": "uint256"
        },
        {
          "internalType": "uint256",
          "name": "merkleRoot",
          "type": "uint256"
        },
        {
          "internalType": "uint256[8]",
          "name": "proof",
          "type": "uint256[8]"
        }
      ],
      "name": "vote",
      "outputs": [],
      "stateMutability": "nonpayable",
      "type": "function"
    }
  ],
  "bytecode": "0x60c06040523480156200001157600080fd5b5060405162002e6a38038062002e6a8339818101604052810190620000379190620002f9565b33600073ffffffffffffffffffffffffffffffffffffffff168173ffffffffffffffffffffffffffffffffffffffff1603620000ad5760006040517f1e4fbdf7000000000000000000000000000000000000000000000000000000008152600401620000a4919062000366565b60405180910390fd5b620000be816200013760201b60201c565b508273ffffffffffffffffffffffffffffffffffffffff1660808173ffffffffffffffffffffffffffffffffffffffff1681525050816001819055508073ffffffffffffffffffffffffffffffffffffffff1660a08173ffffffffffffffffffffffffffffffffffffffff168152505050505062000383565b60008060009054906101000a900473ffffffffffffffffffffffffffffffffffffffff169050816000806101000a81548173ffffffffffffffffffffffffffffffffffffffff021916908373ffffffffffffffffffffffffffffffffffffffff1602179055508173ffffffffffffffffffffffffffffffffffffffff168173ffffffffffffffffffffffffffffffffffffffff167f8be0079c531659141344cd1fd0a4f28419497f9722a3daafe3b4186f6b6457e060405160405180910390a35050565b600080fd5b600073ffffffffffffffffffffffffffffffffffffffff82169050919050565b60006200022d8262000200565b9050919050565b6000620002418262000220565b9050919050565b620002538162000234565b81146200025f57600080fd5b50565b600081519050620002738162000248565b92915050565b6000819050919050565b6200028e8162000279565b81146200029a57600080fd5b50565b600081519050620002ae8162000283565b92915050565b6000620002c18262000220565b9050919050565b620002d381620002b4565b8114620002df57600080fd5b50565b600081519050620002f381620002c8565b92915050565b600080600060608486031215620003155762000314620001fb565b5b6000620003258682870162000262565b935050602062000338868287016200029d565b92505060406200034b86828701620002e2565b9150509250925092565b620003608162000220565b82525050565b60006020820190506200037d600083018462000355565b92915050565b60805160a051612aac620003be6000396000818161040f01528181610c240152610c6501526000818161088c0152610abe0152612aac6000f3fe608060405234801561001057600080fd5b50600436106100cf5760003560e01c80635a9c50d21161008c5780638da5cb5b116100665780638da5cb5b146101ec578063c7f758a81461020a578063da35c6641461023e578063f2fde38b1461025c576100cf565b80635a9c50d2146101a8578063715018a6146101c457806385f0ad84146101ce576100cf565b80630386a016146100d457806305268cff146100f05780630a898f491461010e578063112f69911461013e5780631809beba1461015a5780632b7ac3f31461018a575b600080fd5b6100ee60048036038101906100e991906114a3565b610278565b005b6100f861040d565b604051610105919061154f565b60405180910390f35b61012860048036038101906101239190611686565b610431565b6040516101359190611771565b60405180910390f35b610158600480360381019061015391906114a3565b610632565b005b610174600480360381019061016f91906117c6565b61067b565b60405161018191906118d7565b60405180910390f35b61019261088a565b60405161019f919061191a565b60405180910390f35b6101c260048036038101906101bd9190611990565b6108ae565b005b6101cc610dca565b005b6101d6610dde565b6040516101e39190611771565b60405180910390f35b6101f4610de4565b6040516102019190611a3f565b60405180910390f35b610224600480360381019061021f91906114a3565b610e0d565b604051610235959493929190611cab565b60405180910390f35b610246611013565b6040516102539190611771565b60405180910390f35b61027660048036038101906102719190611d38565b611019565b005b60006003600083815260200190815260200160002090508060060160089054906101000a900460ff16156102e1576040517f08c379a00000000000000000000000000000000000000000000000000000000081526004016102d890611db1565b60405180910390fd5b8060060160009054906101000a900467ffffffffffffffff1667ffffffffffffffff16421015610346576040517f08c379a000000000000000000000000000000000000000000000000000000000815260040161033d90611e1d565b60405180910390fd5b60018160060160086101000a81548160ff021916908315150217905550600060ff90506000805b83600301805490508160ff1610156103ce5760008460040160008360ff168152602001908152602001600020549050828111156103af578092508193506103bc565b8281036103bb5760ff93505b5b50806103c790611e6c565b905061036d565b50837f72b5ce25e9823e74d98ed37f5ce167c0ed7e8728dd1d45326ee475b9ac9ba427836040516103ff9190611ea4565b60405180910390a250505050565b7f000000000000000000000000000000000000000000000000000000000000000081565b600061043b61109f565b6002848490501015610482576040517f08c379a000000000000000000000000000000000000000000000000000000000815260040161047990611f0b565b60405180910390fd5b60026000815461049190611f2b565b9190508190559050600060036000838152602001908152602001600020905089898260000191826104c39291906121af565b5087878260010191826104d79291906121af565b50858160020160006101000a81548160ff021916908360018111156104ff576104fe611aea565b5b021790555080600301600061051491906113c1565b60005b8585905081101561059257816003018686838181106105395761053861227f565b5b905060200281019061054b91906122bd565b909180600181540180825580915050600190039060005260206000200160009091929091929091929091925091826105849291906121af565b508080600101915050610517565b508263ffffffff16426105a59190612320565b8160060160006101000a81548167ffffffffffffffff021916908367ffffffffffffffff160217905550817f6f20a81eb0aacaf8ee50c24f6af2659e67742060a556dbfe8b5f30a833371daa878c8c8560060160009054906101000a900467ffffffffffffffff1660405161061d9493929190612398565b60405180910390a25098975050505050505050565b61063a61109f565b806001819055507fa983c43a31d5106526385dbcecc40fb9547eefb4b0f7d2e43b5fc71448dc8c09816040516106709190611771565b60405180910390a150565b606060006003600086815260200190815260200160002090506000816003018054905090508061ffff168561ffff16106106ea576040517f08c379a00000000000000000000000000000000000000000000000000000000081526004016106e190612424565b60405180910390fd5b6000808561ffff16148061071057508161ffff16858761070a9190612444565b61ffff16115b8061072d57508561ffff1685876107279190612444565b61ffff16105b61074257848661073d9190612444565b610744565b815b90508061ffff168661ffff1610158015610762575060008261ffff16115b156107bb57600067ffffffffffffffff81111561078257610781611f7e565b5b6040519080825280602002602001820160405280156107b05781602001602082028036833780820191505090505b509350505050610883565b85816107c7919061247a565b61ffff1667ffffffffffffffff8111156107e4576107e3611f7e565b5b6040519080825280602002602001820160405280156108125781602001602082028036833780820191505090505b50935060008690505b8161ffff168161ffff16101561087e578360040160008261ffff16815260200190815260200160002054858883610852919061247a565b61ffff16815181106108675761086661227f565b5b60200260200101818152505080600101905061081b565b505050505b9392505050565b7f000000000000000000000000000000000000000000000000000000000000000081565b60006003600088815260200190815260200160002090508060060160009054906101000a900467ffffffffffffffff1667ffffffffffffffff164210610929576040517f08c379a0000000000000000000000000000000000000000000000000000000008152600401610920906124fc565b60405180910390fd5b80600301805490508660ff1610610975576040517f08c379a000000000000000000000000000000000000000000000000000000000815260040161096c90612568565b60405180910390fd5b80600501600085815260200190815260200160002060009054906101000a900460ff16156109d8576040517f08c379a00000000000000000000000000000000000000000000000000000000081526004016109cf906125d4565b60405180910390fd5b6001548314610a1c576040517f08c379a0000000000000000000000000000000000000000000000000000000008152600401610a1390612640565b60405180910390fd5b6000610a2a8760ff16611126565b604051602001610a3a91906126e8565b6040516020818303038152906040528051906020012090508060001c8614610a97576040517f08c379a0000000000000000000000000000000000000000000000000000000008152600401610a8e90612756565b60405180910390fd5b600060405180608001604052808681526020018781526020018881526020018a81525090507f000000000000000000000000000000000000000000000000000000000000000073ffffffffffffffffffffffffffffffffffffffff16632357251185836040518363ffffffff1660e01b8152600401610b17929190612814565b602060405180830381865afa158015610b34573d6000803e3d6000fd5b505050506040513d601f19601f82011682018060405250810190610b58919061286b565b610b97576040517f08c379a0000000000000000000000000000000000000000000000000000000008152600401610b8e906128e4565b60405180910390fd5b600183600501600088815260200190815260200160002060006101000a81548160ff021916908315150217905550600060019050600180811115610bde57610bdd611aea565b5b8460020160009054906101000a900460ff166001811115610c0257610c01611aea565b5b148015610c5c5750600073ffffffffffffffffffffffffffffffffffffffff167f000000000000000000000000000000000000000000000000000000000000000073ffffffffffffffffffffffffffffffffffffffff1614155b15610d0c5760007f000000000000000000000000000000000000000000000000000000000000000073ffffffffffffffffffffffffffffffffffffffff16639ab24eb0336040518263ffffffff1660e01b8152600401610cbc9190611a3f565b602060405180830381865afa158015610cd9573d6000803e3d6000fd5b505050506040513d601f19601f82011682018060405250810190610cfd9190612919565b9050610d0881611286565b9150505b808460040160008b60ff16815260200190815260200160002060008282540192505081905550897f56bd80d53a258d2249bab33821ad5288cc0c2b3d17b5ce7c41c7d67bbcc2982a8a8984604051610d6693929190612946565b60405180910390a28360060160009054906101000a900467ffffffffffffffff1667ffffffffffffffff164210158015610daf57508360060160089054906101000a900460ff16155b15610dbe57610dbd8a610278565b5b50505050505050505050565b610dd261109f565b610ddc60006112f5565b565b60015481565b60008060009054906101000a900473ffffffffffffffffffffffffffffffffffffffff16905090565b6060600080600060606000600360008881526020019081526020016000209050806000018160020160009054906101000a900460ff168260060160089054906101000a900460ff16158015610e8357508260060160009054906101000a900467ffffffffffffffff1667ffffffffffffffff1642105b8360060160009054906101000a900467ffffffffffffffff1684600301848054610eac90611fdc565b80601f0160208091040260200160405190810160405280929190818152602001828054610ed890611fdc565b8015610f255780601f10610efa57610100808354040283529160200191610f25565b820191906000526020600020905b815481529060010190602001808311610f0857829003601f168201915b5050505050945080805480602002602001604051908101604052809291908181526020016000905b82821015610ff9578382906000526020600020018054610f6c90611fdc565b80601f0160208091040260200160405190810160405280929190818152602001828054610f9890611fdc565b8015610fe55780601f10610fba57610100808354040283529160200191610fe5565b820191906000526020600020905b815481529060010190602001808311610fc857829003601f168201915b505050505081526020019060010190610f4d565b505050509050955095509550955095505091939590929450565b60025481565b61102161109f565b600073ffffffffffffffffffffffffffffffffffffffff168173ffffffffffffffffffffffffffffffffffffffff16036110935760006040517f1e4fbdf700000000000000000000000000000000000000000000000000000000815260040161108a9190611a3f565b60405180910390fd5b61109c816112f5565b50565b6110a76113b9565b73ffffffffffffffffffffffffffffffffffffffff166110c5610de4565b73ffffffffffffffffffffffffffffffffffffffff1614611124576110e86113b9565b6040517f118cdaa700000000000000000000000000000000000000000000000000000000815260040161111b9190611a3f565b60405180910390fd5b565b60606000820361116d576040518060400160405280600181526020017f30000000000000000000000000000000000000000000000000000000000000008152509050611281565b600082905060005b6000821461119f57808061118890611f2b565b915050600a8261119891906129ac565b9150611175565b60008167ffffffffffffffff8111156111bb576111ba611f7e565b5b6040519080825280601f01601f1916602001820160405280156111ed5781602001600182028036833780820191505090505b5090505b6000851461127a5760018261120691906129dd565b9150600a856112159190612a11565b60306112219190612a42565b60f81b8183815181106112375761123661227f565b5b60200101907effffffffffffffffffffffffffffffffffffffffffffffffffffffffffffff1916908160001a905350600a8561127391906129ac565b94506111f1565b8093505050505b919050565b600080820361129857600090506112f0565b600060026001846112a99190612a42565b6112b391906129ac565b90508291505b818110156112ee5780915060028182856112d391906129ac565b6112dd9190612a42565b6112e791906129ac565b90506112b9565b505b919050565b60008060009054906101000a900473ffffffffffffffffffffffffffffffffffffffff169050816000806101000a81548173ffffffffffffffffffffffffffffffffffffffff021916908373ffffffffffffffffffffffffffffffffffffffff1602179055508173ffffffffffffffffffffffffffffffffffffffff168173ffffffffffffffffffffffffffffffffffffffff167f8be0079c531659141344cd1fd0a4f28419497f9722a3daafe3b4186f6b6457e060405160405180910390a35050565b600033905090565b50805460008255906000526020600020908101906113df91906113e2565b50565b5b8082111561140257600081816113f99190611406565b506001016113e3565b5090565b50805461141290611fdc565b6000825580601f106114245750611443565b601f0160209004906000526020600020908101906114429190611446565b5b50565b5b8082111561145f576000816000905550600101611447565b5090565b600080fd5b600080fd5b6000819050919050565b6114808161146d565b811461148b57600080fd5b50565b60008135905061149d81611477565b92915050565b6000602082840312156114b9576114b8611463565b5b60006114c78482850161148e565b91505092915050565b600073ffffffffffffffffffffffffffffffffffffffff82169050919050565b6000819050919050565b600061151561151061150b846114d0565b6114f0565b6114d0565b9050919050565b6000611527826114fa565b9050919050565b60006115398261151c565b9050919050565b6115498161152e565b82525050565b60006020820190506115646000830184611540565b92915050565b600080fd5b600080fd5b600080fd5b60008083601f84011261158f5761158e61156a565b5b8235905067ffffffffffffffff8111156115ac576115ab61156f565b5b6020830191508360018202830111156115c8576115c7611574565b5b9250929050565b600281106115dc57600080fd5b50565b6000813590506115ee816115cf565b92915050565b60008083601f84011261160a5761160961156a565b5b8235905067ffffffffffffffff8111156116275761162661156f565b5b60208301915083602082028301111561164357611642611574565b5b9250929050565b600063ffffffff82169050919050565b6116638161164a565b811461166e57600080fd5b50565b6000813590506116808161165a565b92915050565b60008060008060008060008060a0898b0312156116a6576116a5611463565b5b600089013567ffffffffffffffff8111156116c4576116c3611468565b5b6116d08b828c01611579565b9850985050602089013567ffffffffffffffff8111156116f3576116f2611468565b5b6116ff8b828c01611579565b965096505060406117128b828c016115df565b945050606089013567ffffffffffffffff81111561173357611732611468565b5b61173f8b828c016115f4565b935093505060806117528b828c01611671565b9150509295985092959890939650565b61176b8161146d565b82525050565b60006020820190506117866000830184611762565b92915050565b600061ffff82169050919050565b6117a38161178c565b81146117ae57600080fd5b50565b6000813590506117c08161179a565b92915050565b6000806000606084860312156117df576117de611463565b5b60006117ed8682870161148e565b93505060206117fe868287016117b1565b925050604061180f868287016117b1565b9150509250925092565b600081519050919050565b600082825260208201905092915050565b6000819050602082019050919050565b61184e8161146d565b82525050565b60006118608383611845565b60208301905092915050565b6000602082019050919050565b600061188482611819565b61188e8185611824565b935061189983611835565b8060005b838110156118ca5781516118b18882611854565b97506118bc8361186c565b92505060018101905061189d565b5085935050505092915050565b600060208201905081810360008301526118f18184611879565b905092915050565b60006119048261151c565b9050919050565b611914816118f9565b82525050565b600060208201905061192f600083018461190b565b92915050565b600060ff82169050919050565b61194b81611935565b811461195657600080fd5b50565b60008135905061196881611942565b92915050565b60008190508260206008028201111561198a57611989611574565b5b92915050565b6000806000806000806101a087890312156119ae576119ad611463565b5b60006119bc89828a0161148e565b96505060206119cd89828a01611959565b95505060406119de89828a0161148e565b94505060606119ef89828a0161148e565b9350506080611a0089828a0161148e565b92505060a0611a1189828a0161196e565b9150509295509295509295565b6000611a29826114d0565b9050919050565b611a3981611a1e565b82525050565b6000602082019050611a546000830184611a30565b92915050565b600081519050919050565b600082825260208201905092915050565b60005b83811015611a94578082015181840152602081019050611a79565b60008484015250505050565b6000601f19601f8301169050919050565b6000611abc82611a5a565b611ac68185611a65565b9350611ad6818560208601611a76565b611adf81611aa0565b840191505092915050565b7f4e487b7100000000000000000000000000000000000000000000000000000000600052602160045260246000fd5b60028110611b2a57611b29611aea565b5b50565b6000819050611b3b82611b19565b919050565b6000611b4b82611b2d565b9050919050565b611b5b81611b40565b82525050565b60008115159050919050565b611b7681611b61565b82525050565b600067ffffffffffffffff82169050919050565b611b9981611b7c565b82525050565b600081519050919050565b600082825260208201905092915050565b6000819050602082019050919050565b600082825260208201905092915050565b6000611be782611a5a565b611bf18185611bcb565b9350611c01818560208601611a76565b611c0a81611aa0565b840191505092915050565b6000611c218383611bdc565b905092915050565b6000602082019050919050565b6000611c4182611b9f565b611c4b8185611baa565b935083602082028501611c5d85611bbb565b8060005b85811015611c995784840389528151611c7a8582611c15565b9450611c8583611c29565b925060208a01995050600181019050611c61565b50829750879550505050505092915050565b600060a0820190508181036000830152611cc58188611ab1565b9050611cd46020830187611b52565b611ce16040830186611b6d565b611cee6060830185611b90565b8181036080830152611d008184611c36565b90509695505050505050565b611d1581611a1e565b8114611d2057600080fd5b50565b600081359050611d3281611d0c565b92915050565b600060208284031215611d4e57611d4d611463565b5b6000611d5c84828501611d23565b91505092915050565b7f616c726561647920636c6f736564000000000000000000000000000000000000600082015250565b6000611d9b600e83611a65565b9150611da682611d65565b602082019050919050565b60006020820190508181036000830152611dca81611d8e565b9050919050565b7f6e6f742065787069726564000000000000000000000000000000000000000000600082015250565b6000611e07600b83611a65565b9150611e1282611dd1565b602082019050919050565b60006020820190508181036000830152611e3681611dfa565b9050919050565b7f4e487b7100000000000000000000000000000000000000000000000000000000600052601160045260246000fd5b6000611e7782611935565b915060ff8203611e8a57611e89611e3d565b5b600182019050919050565b611e9e81611935565b82525050565b6000602082019050611eb96000830184611e95565b92915050565b7f6e65656420322b206f7074730000000000000000000000000000000000000000600082015250565b6000611ef5600c83611a65565b9150611f0082611ebf565b602082019050919050565b60006020820190508181036000830152611f2481611ee8565b9050919050565b6000611f368261146d565b91507fffffffffffffffffffffffffffffffffffffffffffffffffffffffffffffffff8203611f6857611f67611e3d565b5b600182019050919050565b600082905092915050565b7f4e487b7100000000000000000000000000000000000000000000000000000000600052604160045260246000fd5b7f4e487b7100000000000000000000000000000000000000000000000000000000600052602260045260246000fd5b60006002820490506001821680611ff457607f821691505b60208210810361200757612006611fad565b5b50919050565b60008190508160005260206000209050919050565b60006020601f8301049050919050565b600082821b905092915050565b60006008830261206f7fffffffffffffffffffffffffffffffffffffffffffffffffffffffffffffffff82612032565b6120798683612032565b95508019841693508086168417925050509392505050565b60006120ac6120a76120a28461146d565b6114f0565b61146d565b9050919050565b6000819050919050565b6120c683612091565b6120da6120d2826120b3565b84845461203f565b825550505050565b600090565b6120ef6120e2565b6120fa8184846120bd565b505050565b5b8181101561211e576121136000826120e7565b600181019050612100565b5050565b601f821115612163576121348161200d565b61213d84612022565b8101602085101561214c578190505b61216061215885612022565b8301826120ff565b50505b505050565b600082821c905092915050565b600061218660001984600802612168565b1980831691505092915050565b600061219f8383612175565b9150826002028217905092915050565b6121b98383611f73565b67ffffffffffffffff8111156121d2576121d1611f7e565b5b6121dc8254611fdc565b6121e7828285612122565b6000601f8311600181146122165760008415612204578287013590505b61220e8582612193565b865550612276565b601f1984166122248661200d565b60005b8281101561224c57848901358255600182019150602085019450602081019050612227565b868310156122695784890135612265601f891682612175565b8355505b6001600288020188555050505b50505050505050565b7f4e487b7100000000000000000000000000000000000000000000000000000000600052603260045260246000fd5b600080fd5b600080fd5b600080fd5b600080833560016020038436030381126122da576122d96122ae565b5b80840192508235915067ffffffffffffffff8211156122fc576122fb6122b3565b5b602083019250600182023603831315612318576123176122b8565b5b509250929050565b600061232b82611b7c565b915061233683611b7c565b9250828201905067ffffffffffffffff81111561235657612355611e3d565b5b92915050565b82818337600083830152505050565b60006123778385611a65565b935061238483858461235c565b61238d83611aa0565b840190509392505050565b60006060820190506123ad6000830187611b52565b81810360208301526123c081858761236b565b90506123cf6040830184611b90565b95945050505050565b7f6f6f620000000000000000000000000000000000000000000000000000000000600082015250565b600061240e600383611a65565b9150612419826123d8565b602082019050919050565b6000602082019050818103600083015261243d81612401565b9050919050565b600061244f8261178c565b915061245a8361178c565b9250828201905061ffff81111561247457612473611e3d565b5b92915050565b60006124858261178c565b91506124908361178c565b9250828203905061ffff8111156124aa576124a9611e3d565b5b92915050565b7f766f74696e6720697320636c6f73656400000000000000000000000000000000600082015250565b60006124e6601083611a65565b91506124f1826124b0565b602082019050919050565b60006020820190508181036000830152612515816124d9565b9050919050565b7f696e76616c6964206f7074696f6e000000000000000000000000000000000000600082015250565b6000612552600e83611a65565b915061255d8261251c565b602082019050919050565b6000602082019050818103600083015261258181612545565b9050919050565b7f766f746520616c72656164792063617374000000000000000000000000000000600082015250565b60006125be601183611a65565b91506125c982612588565b602082019050919050565b600060208201905081810360008301526125ed816125b1565b9050919050565b7f696e76616c6964206d65726b6c6520726f6f7400000000000000000000000000600082015250565b600061262a601383611a65565b9150612635826125f4565b602082019050919050565b600060208201905081810360008301526126598161261d565b9050919050565b600081905092915050565b7f564f54455f000000000000000000000000000000000000000000000000000000600082015250565b60006126a1600583612660565b91506126ac8261266b565b600582019050919050565b60006126c282611a5a565b6126cc8185612660565b93506126dc818560208601611a76565b80840191505092915050565b60006126f382612694565b91506126ff82846126b7565b915081905092915050565b7f7369676e616c2d6f7074696f6e206d69736d6174636800000000000000000000600082015250565b6000612740601683611a65565b915061274b8261270a565b602082019050919050565b6000602082019050818103600083015261276f81612733565b9050919050565b82818337505050565b61278c6101008383612776565b5050565b600060049050919050565b600081905092915050565b6000819050919050565b6000602082019050919050565b6127c681612790565b6127d0818461279b565b92506127db826127a6565b8060005b8381101561280c5781516127f38782611854565b96506127fe836127b0565b9250506001810190506127df565b505050505050565b60006101808201905061282a600083018561277f565b6128386101008301846127bd565b9392505050565b61284881611b61565b811461285357600080fd5b50565b6000815190506128658161283f565b92915050565b60006020828403121561288157612880611463565b5b600061288f84828501612856565b91505092915050565b7f696e76616c69642070726f6f6600000000000000000000000000000000000000600082015250565b60006128ce600d83611a65565b91506128d982612898565b602082019050919050565b600060208201905081810360008301526128fd816128c1565b9050919050565b60008151905061291381611477565b92915050565b60006020828403121561292f5761292e611463565b5b600061293d84828501612904565b91505092915050565b600060608201905061295b6000830186611e95565b6129686020830185611762565b6129756040830184611762565b949350505050565b7f4e487b7100000000000000000000000000000000000000000000000000000000600052601260045260246000fd5b60006129b78261146d565b91506129c28361146d565b9250826129d2576129d161297d565b5b828204905092915050565b60006129e88261146d565b91506129f38361146d565b9250828203905081811115612a0b57612a0a611e3d565b5b92915050565b6000612a1c8261146d565b9150612a278361146d565b925082612a3757612a3661297d565b5b828206905092915050565b6000612a4d8261146d565b9150612a588361146d565b9250828201905080821115612a7057612a6f611e3d565b5b9291505056fea2646970667358221220b4dd585115f25cd35b88ab962fdd7ab071e0ca41495cf0f56f5ae0a840aa8f3d64736f6c63430008180033",
  "linkReferences": {},
  "deployedLinkReferences": {}
}